:020000040000FA
:100000000C9468000C9490000C9490000C94900058
:100010000C9490000C9490000C9490000C94900020
:100020000C9490000C9490000C9490000C94900010
:100030000C9490000C9490000C9490000C94900000
:100040000C94B1080C9490000C947F080C945908FF
:100050000C9490000C9490000C9490000C949000E0
:100060000C94FB080C9490001F1C1F1E1F1E1F1FCA
:100070001E1F1E00000000240027002A00000000B0
:1000800000250028002B0000000000230026002986
:100090000004040404040404040202020202020331
:1000A000030303030301020408102040800102043B
:1000B00008102001020408102000000008000201BE
:1000C00000000304070000000000000000005F0AB9
:1000D00011241FBECFEFD8E0DEBFCDBF24E0ACE3DC
:1000E000B2E001C01D92A334B207E1F712E0A0E034
:1000F000B1E0E4E3FBE202C005900D92AC33B1073E
:10010000D9F710E0C8E6D0E004C02197FE010E94B4
:100110009213C736D107C9F70E94130B0C94981598
:100120000C94000096E0899FD0011124A053BC4F8D
:1001300090967C936E935F9791E091969C939197A4
:10014000E0913D04F0913E0490913C04992339F0F4
:10015000309751F0811108C08091EC0309943097D9
:1001600019F05C968C91FACF0895CF92DF92EF92BE
:10017000FF920F931F9396E0899FF0011124E053A3
:10018000FC4F11A2278D30A12130310551F178F0BB
:100190002230310509F451C02330310509F452C031
:1001A0001F910F91FF90EF90DF90CF9008956623FD
:1001B000B9F361E070E00E9492002FB7F89480914B
:1001C000C7029091C802A091C902B091CA022FBF84
:1001D0008093280490932904A0932A04B0932B04BD
:1001E000DFCF9FB7F894C090C702D090C802E090CC
:1001F000C902F090CA029FBF0091280410912904FF
:1002000020912A0430912B04C01AD10AE20AF30A81
:1002100000913A0410913B0430E020E00C151D05DC
:100220002E053F0550F462E070E01F910F91FF90A2
:10023000EF90DF90CF900C9492006111B1CF63E00A
:1002400070E0F3CF70E060E0F0CF08950895AF92D2
:10025000BF92CF92DF92EF92FF920F931F93CF93B3
:10026000DF936C017B018B01040F151FEB015E0115
:10027000AE18BF08C017D10759F06991D601ED91AA
:10028000FC910190F081E02DC6010995892B79F749
:10029000C501DF91CF911F910F91FF90EF90DF90FB
:1002A000CF90BF90AF900895FC01538D448D252FC2
:1002B00030E0842F90E0821B930B541710F0CF9600
:1002C000089501970895FC01918D828D981761F032
:1002D000A28DAE0FBF2FB11D5D968C91928D9F5F49
:1002E0009F73928F90E008958FEF9FEF0895FC0128
:1002F000918D828D981731F0828DE80FF11D858DDB
:1003000090E008958FEF9FEF0895FC01918D228D6D
:10031000892F90E0805C9F4F821B91098F739927F2
:1003200008958BE193E00E94850121E0892B09F477
:1003300020E0822F089580E090E0892B29F00E9430
:10034000910181110C9400000895FC01A48DA80F67
:10035000B92FB11DA35ABF4F2C91848D90E0019607
:100360008F739927848FA689B7892C93A089B18927
:100370008C91837080648C93938D848D981306C0C8
:100380000288F389E02D80818F7D80830895EF922C
:10039000FF920F931F93CF93DF93EC0181E0888F3F
:1003A0009B8D8C8D98131AC0E889F989808185FF0F
:1003B00015C09FB7F894EE89FF896083E889F989B1
:1003C00080818370806480839FBF81E090E0DF91B3
:1003D000CF911F910F91FF90EF900895F62E0B8D06
:1003E00010E00F5F1F4F0F731127E02E8C8D8E11C1
:1003F0000CC00FB607FCFACFE889F989808185FF28
:10040000F5CFCE010E94A501F1CFEB8DEC0FFD2FB2
:10041000F11DE35AFF4FF0829FB7F8940B8FEA89E2
:10042000FB8980818062CFCFCF93DF93EC01888DF1
:100430008823B9F0AA89BB89E889F9898C9185FD5F
:1004400003C0808186FD0DC00FB607FCF7CF8C91ED
:1004500085FFF2CF808185FFEDCFCE010E94A501FF
:10046000E9CFDF91CF910895833081F028F4813076
:1004700099F08230A9F008958730A9F08830C9F04A
:100480008430B1F4809180008F7D03C08091800022
:100490008F7780938000089584B58F7784BD089509
:1004A00084B58F7DFBCF8091B0008F778093B000B3
:1004B00008958091B0008F7DF9CFCF93DF93282FDF
:1004C00030E0F901E754FF4F8491F901EB55FF4FFC
:1004D000D491F901EF56FF4FC491CC23A1F08111C3
:1004E0000E943402EC2FF0E0EE0FFF1FE957FF4FA0
:1004F000A591B491EC91ED2381E090E009F480E0C6
:10050000DF91CF91089580E090E0FACF862F0C9490
:100510005D021F93CF93DF93282F30E0F901E7545A
:10052000FF4F8491F901EB55FF4FD491F901EF563C
:10053000FF4FC491CC23A9F0162F81110E943402E1
:10054000EC2FF0E0EE0FFF1FE358FF4FA591B491A1
:100550008FB7F894EC91111108C0D095DE23DC938D
:100560008FBFDF91CF911F910895DE2BF8CF862F9B
:10057000642F0C948902CF93DF9390E0FC01EB553C
:10058000FF4F24918F569F4FFC0184918823C9F01F
:1005900090E0880F991FFC01ED58FF4FA591B49191
:1005A000FC01E358FF4FC591D49161110DC09FB775
:1005B000F8948C91209582238C938881282328831A
:1005C0009FBFDF91CF910895623051F49FB7F894A7
:1005D0003C91822F809583238C93E8812E2BEFCF43
:1005E0008FB7F894EC912E2B2C938FBFEACF862FE8
:1005F000642F0C94BB023FB7F894809185029091D0
:100600008602A0918702B091880226B5A89B05C0FA
:100610002F3F19F00196A11DB11D3FBFBA2FA92F81
:10062000982F8827BC01CD01620F711D811D911D7E
:1006300042E0660F771F881F991F4A95D1F70895EA
:100640008F929F92AF92BF92CF92DF92EF92FF92E2
:100650004B015C010E94FB026B017C010E94FB02CA
:100660006C197D098E099F09683E734081059105CB
:10067000A8F321E0821A9108A108B10888EEC80EFB
:1006800083E0D81EE11CF11C81149104A104B10483
:1006900029F7FF90EF90DF90CF90BF90AF909F90A1
:1006A0008F900895EF92FF920F931F93CF93DF9354
:1006B000EC0169813881432F50E02A81822F90E03C
:1006C000E8E6F0E021E0261730F47491870F911DE1
:1006D0002F5F3196F8CF633018F0337009F401962C
:1006E0006DE671E0469F9001479F300D569F300D9B
:1006F0001124215031094D5F5F4F5695479556950E
:100700004795240F351F280F391FA8E1B0E00E943C
:10071000B4122B817B018C01E20EF11C011D111D15
:10072000A8019701ACE3B0E00E9472122C817B011A
:100730008C01E20EF11C011D111DA80197010E9400
:100740007212AB01BC019D81892F90E0B0E0A0E066
:1007500080589C4BA249B74C8A019B01080F191F76
:100760002A1F3B1FC901B801DF91CF911F910F9143
:10077000FF90EF900895089520916102260F33278E
:10078000331F21323105ECF42091F102FC0190E09D
:1007900080E0243069F082E00895A0916102219107
:1007A000AC014F5B5D4FA40FB52FB11D2C9301968B
:1007B000861798F380916102680F6093610280E070
:1007C000089581E008951092F10281E08093F00293
:1007D0001092CB0261E082E10E94890261E083E134
:1007E0000E948902E9EBF0E080818E7F8083808126
:1007F0008D7F808388E48093B80085E48093BC007B
:1008000008951092C6021092C5021092F80210923A
:100810001A030E94E30385E291E09093C40280935F
:10082000C30286E291E09093C2028093C1020895D0
:10083000CF93DF9391E0909340028823B9F0C09169
:10084000B800D091BA008091BC008A7B8093BC0034
:1008500060E082E10E94890260E083E10E948902F7
:100860000E94E303D093BA00C093B800DF91CF9108
:1008700008958F929F92AF92BF92CF92DF92EF92A4
:10088000FF920F931F93CF93DF93D0911A03D1322E
:1008900008F0D7C0182FC09119030E94FB026B010A
:1008A0007C018091F10281116BC082E08093F102A2
:1008B0001093F0028FEF8093EF021092EE02D0932C
:1008C000ED02A9EFB2E0EDECF2E080E0D81391C0C8
:1008D0001092CC028091CC02CC0FC82BC093CC02DA
:1008E0008091CB02813009F088C01092CB020E9427
:1008F000FB026B017C018091CC028093BB00809154
:10090000F3029091F402A091F502B091F602892BC6
:100910008A2B8B2BA1F00E94FB020091F302109115
:10092000F4022091F5023091F6026C197D098E09CE
:100930009F09061717072807390708F442C0809156
:10094000BC0083FDD8CF85EC8093BC000E94FB02E5
:100950006B017C018091F102823009F450C08091DA
:10096000EF028F3F09F46FC08091EF02803209F4EB
:100970006CC08091EF02803309F469C084E026C026
:100980008091F3029091F402A091F502B091F602E9
:10099000892B8A2B8B2B09F484CF0E94FB02809039
:1009A000F3029090F402A090F502B090F6026C1958
:1009B0007D098E099F0986169706A806B90608F0D4
:1009C00070CF8091F2020E94180485E01092F80224
:1009D00010921A031092F702DF91CF911F910F919D
:1009E000FF90EF90DF90CF90BF90AF909F908F904F
:1009F00008959D9191938F5F69CF85EEA5CF8091EA
:100A0000F3029091F402A091F502B091F602892BC5
:100A10008A2B8B2B09F49ECF0E94FB020091F302DC
:100A20001091F4022091F5023091F6026C197D09C3
:100A30008E099F09061717072807390708F08ACF7C
:100A4000C0CF81E0C3CF80E0C1CF82E0BFCF83E0E1
:100A5000BDCFCF93DF93EC018B818823A1F08881F8
:100A600091E09093F702809319031092F80210928C
:100A70001A0381E00E94390491E0811190E0892FEE
:100A8000DF91CF9108950E94010481E08B83CE0114
:100A90000E942905982F8111E2CFF1CF0895E091AE
:100AA000C6028091C502E81730F4F0E0E757FD4F29
:100AB000808190E008958FEF9FEF08959091C60296
:100AC0008091C5022FEF3FEF981748F4E92FF0E02F
:100AD000E757FD4F208130E09F5F9093C602C90128
:100AE00008958091C5029091C602891B990B0895C3
:100AF000CF92DF92EF92FF920F931F93CF93DF93EA
:100B00007C01CB018A012091F702222389F0EB01BD
:100B10006B01C40ED51ECC15DD0569F06991D701B6
:100B2000ED91FC910190F081E02DC7010995F3CF83
:100B3000642F0E94BC03C801DF91CF911F910F91D8
:100B4000FF90EF90DF90CF900895CF93DF931F92A7
:100B5000CDB7DEB769832091F7022223F9F0209107
:100B60001A03203258F021E030E0FC013383228365
:100B700090E080E00F90DF91CF9108958091F8028E
:100B8000E82FF0E0E750FD4F998190838F5F8093CD
:100B9000F80280931A0381E090E0ECCF61E0CE018F
:100BA00001960E94BC03F7CFFC01248131E0309311
:100BB000F702209319031092F80210921A0383850A
:100BC000682B88EB93E00E94A50581E00C94390422
:100BD00090E080E008950F931F93CF938C01C62F70
:100BE0000E94D4056C2F6460C8010E94D4056C2F4C
:100BF0006B7FC8010E94D40583EC90E00197F1F768
:100C0000CF911F910F9108950F931F93CF93DF936F
:100C10008C01D62FC42F607F642B0E94EB0580E1EE
:100C2000D89FB00111246C2BC801DF91CF911F9187
:100C30000F910C94EB0540E061E084EC93E00E949E
:100C400004068BE39FE10197F1F70895CF93DF93BB
:100C5000CDB7DEB728970FB6F894DEBF0FBECDBF75
:100C600098E0E3E2F1E0DE01119601900D929A9591
:100C7000E1F79091CC03981710F48FEF890F90E073
:100C8000880F991F21E030E02C0F3D1F820F931F2A
:100C9000FC016081606840E084EC93E028960FB628
:100CA000F894DEBF0FBECDBFDF91CF910C94040648
:100CB00041E00E94040681E090E00895FB0101906C
:100CC0000020E9F73197AF01461B570BDC01ED918E
:100CD000FC910280F381E02D09948F929F92AF9254
:100CE000BF92EF92FF920F931F93CF93DF93CDB7F5
:100CF000DEB7A1970FB6F894DEBF0FBECDBF7C0163
:100D0000FA01CB0119A2223008F42AE08E010F5D0E
:100D10001F4F822E912CB12CA12CBF01A501940153
:100D20000E947013F901CA016A300CF5605DD801A8
:100D30006E938D01232B242B252B79F790E080E0F7
:100D4000109721F0BD01C7010E945E06A1960FB663
:100D5000F894DEBF0FBECDBFDF91CF911F910F91F1
:100D6000FF90EF90BF90AF909F908F900895695C37
:100D7000DECFCF92DF92EF92FF920F931F93CF932C
:100D8000DF93EC016A017B01E881F9810190F08138
:100D9000E02D6DE209958C0144275527BA014C19C5
:100DA0005D096E097F092AE0CE010E946D06800F61
:100DB000911FDF91CF911F910F91FF90EF90DF90E6
:100DC000CF900895AB01770F660B770B77FD0C94EE
:100DD000B9062AE00C946D06CF93DF93BC018BE13A
:100DE00093E00E945E06EC0165E671E08BE193E022
:100DF0000E945E068C0F9D1FDF91CF9108950C9489
:100E00005E0685ED8093BC008091F3029091F40220
:100E1000A091F502B091F6020796A11DB11D23E045
:100E2000B695A795979587952A95D1F72091BC00FF
:100E300024FD03C01092F10208954091F3025091F5
:100E4000F4026091F5027091F602452B462B472B78
:100E500069F30097A105B10541F025E32A95F1F763
:100E600000000197A109B109E1CF8091F2020C9431
:100E700018048F929F92AF92BF92CF92DF92EF921F
:100E8000FF920F931F9360E088E00E9489028BE03D
:100E900090E00197F1F761E088E00E94890283E227
:100EA00090E00197F1F760E088E00E948902ECEAA7
:100EB000F0E06491E8E9F0E0E491F0E0EE0FFF1F6C
:100EC000E957FF4F8591949100E412E42FE030E060
:100ED000462F0E941A0A611571058105910529F0B6
:100EE0006F5F7F4F8F4F9F4F9F700E94551126E974
:100EF00033E44BE05DE30E94B41120E030E040E0D9
:100F00005FE30E94B41160933C0270933D028093B2
:100F10003E0290933F0268E671E08BE193E00E940D
:100F2000FF06C0903C02D0903D02E0903E02F0905F
:100F30003F02A7019601C701B6010E946B1363E748
:100F400071E081111AC046015701E894B7F82FEFFC
:100F50003FEF4FE75FE7C501B4010E946B138111BA
:100F60002AC02FEF3FEF4FE75FE7C501B4010E94B2
:100F70004E11181604F567E771E08BE193E00E94CB
:100F80005E068FE791E00E94EC0660913C02709152
:100F90003D0280913E0290913F020E943013CB01AE
:100FA0001F910F91FF90EF90DF90CF90BF90AF9087
:100FB0009F908F9008952FEF3FEF4FE75FE4C701B9
:100FC000B6010E94661318161CF46BE771E0D5CFCA
:100FD0002FEF3FEF4FE75FECC701B6010E944E11C4
:100FE00087FDF3CF20E030E0A901C701B6010E94E0
:100FF0004E1187FF09C06DE28BE193E00E94C701AB
:10100000F7FAF094F7F8F0942AE037ED43EA5BE35F
:10101000C701B6010E94C4124B015C010E94371344
:101020006B017C010E9453119B01AC01C501B4010D
:101030000E94C3124B015C012AE0B701A6018BE1BB
:1010400093E00E946D066EE28BE193E00E94C7017F
:1010500020E030E040E251E4C501B4010E94B41147
:101060004B015C010E9437136B01F12CE12C2AE04B
:10107000B701A6018BE193E00E946D06C701B6019E
:101080000E9453119B01AC01C501B4010E94C3121F
:1010900020E030E040E251E40E94B4110E94371396
:1010A000AB0170E060E02AE08BE193E00E946D0606
:1010B00068CF1F920F920FB60F9211242F933F9378
:1010C0004F935F936F937F938F939F93AF93BF9350
:1010D000EF93FF938BE193E00E94A501FF91EF91C5
:1010E000BF91AF919F918F917F916F915F914F9140
:1010F0003F912F910F900FBE0F901F9018951F9248
:101100000F920FB60F9211242F938F939F93EF930B
:10111000FF93E0912B03F0912C038081E091310348
:10112000F091320382FD1BC09081809134038F5F68
:101130008F7320913503821741F0E0913403F0E082
:10114000E55EFC4F958F80933403FF91EF919F9163
:101150008F912F910F900FBE0F901F901895808147
:10116000F4CF1F920F920FB60F9211242F933F933B
:101170008F939F93AF93BF938091C7029091C802C2
:10118000A091C902B091CA023091840223E0230FDA
:101190002D3758F50196A11DB11D2093840280932F
:1011A000C7029093C802A093C902B093CA0280916B
:1011B000850290918602A0918702B09188020196E3
:1011C000A11DB11D8093850290938602A093870292
:1011D000B0938802BF91AF919F918F913F912F91D2
:1011E0000F900FBE0F901F90189526E8230F0296C0
:1011F000A11DB11DD2CF1F920F920FB60F921124D5
:101200002F933F934F935F936F937F938F939F930E
:10121000AF93BF93EF93FF938091B900887F80369F
:1012200009F44AC0F0F5883209F4A7C018F58031F6
:1012300009F49BC0B8F4882309F4F9C0883009F494
:1012400094C0FF91EF91BF91AF919F918F917F914A
:101250006F915F914F913F912F910F900FBE0F9023
:101260001F901895883109F488C0803251F7809317
:10127000EF0214C0803409F49DC040F48033B9F308
:101280008833F9F68093EF0285ECB0C0803509F41D
:1012900085C0883509F496C0883499F60E94010704
:1012A000D0CF883909F48CC038F5883729F050F44C
:1012B000883611F0803729F683E08093F10210928E
:1012C000830257C0883809F47BC0803919F0803810
:1012D00009F0B7CF80918302803208F071C0E091AD
:1012E000830281E08E0F809383028091BB00F0E047
:1012F000ED59FD4F80833DC0803B39F0E0F4803AEA
:1013000009F479C0883A09F09CCF84E08093F10217
:101310001092620210926102E091C302F091C40245
:1013200009958091610281110FC081E08093610273
:101330001092410209C0803C09F4A6CF883C09F410
:10134000A3CF883B09F07DCFE091620281E08E0F50
:1013500080936202F0E0EF5BFD4F80818093BB00E1
:10136000909162028091610229C08091CC028093A9
:10137000BB0085EC8093BC0064CF9091EE0280911D
:10138000ED02981758F5E091EE0281E08E0F809300
:10139000EE02F0E0E353FD4F8081E9CFE091EE02F1
:1013A00081E08E0F8093EE028091BB00F0E0E3536A
:1013B000FD4F80839091EE028091ED029817C8F264
:1013C00085E8D8CFE091EE0281E08E0F8093EE02A7
:1013D0008091BB00F0E0E353FD4F80838091F002E9
:1013E00081115CCF81E08093CB0284EA8093BC00C2
:1013F0001092F10226CF85EC8093BC001092F1028E
:1014000080918302803230F4E0918302F0E0ED5964
:10141000FD4F10826091830270E0E091C102F09173
:10142000C20283E692E00995109283020ACF1092DD
:10143000EF0234CFCF92DF92EF92FF920F931F9380
:10144000E82FF92F05C0015011092109310961F177
:10145000908196239417B9F305C001501109210911
:10146000310911F1908196239413F7CFC12CD12C1F
:10147000E12CF12C0AC08FEFC81AD80AE80AF80A42
:101480000C151D052E053F0579F0808186238417F4
:1014900091F36C2D7D2D8E2D9F2D1F910F91FF901F
:1014A000EF90DF90CF90089560E070E080E090E0F2
:1014B0001F910F91FF90EF90DF90CF9008951092C1
:1014C0001E0310921D0388EE93E0A0E0B0E080932D
:1014D0001F0390932003A0932103B09322032FE2D4
:1014E00031E030931C0320931B0325EC30E0309354
:1014F00028032093270324EC30E030932A03209321
:10150000290320EC30E030932C0320932B0321ECB3
:1015100030E030932E0320932D0322EC30E0309303
:10152000300320932F0326EC30E0309332032093D6
:101530003103109234031092350310923603109247
:1015400037031092BB031092BA038093BC039093AD
:10155000BD03A093BE03B093BF0381E491E09093D9
:10156000B9038093B8031092D2031092D60310925D
:10157000D5031092D7038FE591E09093D103809328
:10158000D003ECEEF3E010821482138215823696BB
:1015900084E0E832F807B9F78DE091E090933304E6
:1015A000809332048AE091E0909335048093340470
:1015B00084E08093360493E09093370421E131E096
:1015C00030933104209330042AE030E03093390422
:1015D0002093380424EF31E030933B0420933A0405
:1015E00010923E0410923D0410922C0410922D048F
:1015F00010922E0410922F0410923C041092C703F4
:101600001092C60323E531E03093C5032093C40351
:1016100090E29093C80394E19093CD038093CE031E
:101620001092CF030895CF93DF93CDB7DEB76897BD
:101630000FB6F894DEBF0FBECDBF789484B582603C
:1016400084BD84B5816084BD85B5826085BD85B566
:10165000816085BD80916E00816080936E001092E4
:10166000810080918100826080938100809181005F
:1016700081608093810080918000816080938000F0
:101680008091B10084608093B1008091B00081604E
:101690008093B00080917A00846080937A0080917A
:1016A0007A00826080937A0080917A0081608093D2
:1016B0007A0080917A00806880937A001092C1004D
:1016C000E0912B03F0912C0382E08083E0912703CB
:1016D000F09128031082E0912903F0912A038FEC06
:1016E000808310923303E0912F03F091300386E062
:1016F0008083E0912D03F0912E03808180618083AF
:10170000E0912D03F0912E03808188608083E09129
:101710002D03F0912E03808180688083E0912D035A
:10172000F0912E0380818F7D80830E9401041092AE
:10173000C9038091CE03823018F098E09093C903DA
:101740008093CC0362E370E080E090E00E9420038D
:101750006091CF0384EC93E00E94D40568EE73E0BF
:1017600080E090E00E94200360E384EC93E00E941C
:10177000EB050BE416E4C8010197F1F760E384EC94
:1017800093E00E94EB05C8010197F1F760E384EC58
:1017900093E00E94EB0583E592E00197F1F760E2A8
:1017A00084EC93E00E94EB056091C903606240E025
:1017B00084EC93E00E94040684E08093CA0340E036
:1017C0006CE084EC93E00E9404060E941B0682E019
:1017D0008093CB0340E066E084EC93E00E94040633
:1017E00040E062E084EC93E00E9404068BE39FE11A
:1017F0000197F1F788E08093CF0360E084EC93E0F9
:101800000E94D40561E088E00E94BB0260E087E0AE
:101810000E94BB024AE0E42E41E0F42E00E011E019
:10182000D8018C910E5F1F4F60E00E948902E01684
:10183000F106B1F783E891E00E94EC0680E00E9497
:10184000260664E971E084EC93E00E94FF0681E0E3
:101850000E9426066CE971E084EC93E00E94FF068A
:1018600060ED77E080E090E00E94200386EA91E05E
:101870000E94EC060E941B0680E00E94260665EB93
:1018800071E084EC93E00E94FF0660ED77E080E079
:1018900090E00E9420030E941B068091BF0290915D
:1018A000C002009711F00E94341486E090E00E947C
:1018B00098138C0188E6F801808388EB93E092838B
:1018C0008183138280E290E0958384831093C00229
:1018D0000093BF020E94010481E0D80113968C930B
:1018E000C8010E942905FE0131963F01811123C2E2
:1018F00083EC91E00E94EC068BE193E00E941402DD
:101900000E947A158091F3029091F402A091F50261
:10191000B091F602892B8A2B8B2B09F44DC20E94C1
:10192000FB022091F3023091F4024091F5025091B4
:10193000F6026219730984099509261737074807C3
:10194000590708F039C28091F2020E94180410E091
:101950001092C6021093C5021E151F0409F046C05E
:1019600083010C0D1D1D5801C8018A199B098E1594
:101970009F05A8F5D40111968D919C91DC01ED9104
:10198000FC910284F385E02D0995F80181938F0184
:10199000EBCF85EE8093BC006DC28091F3029091F5
:1019A000F402A091F502B091F602892B8A2B8B2BC1
:1019B00009F464C20E94FB022091F3023091F40208
:1019C0004091F5025091F602621973098409950954
:1019D000261737074807590708F050C2B4CFCE0C76
:1019E000DF1CF7E0CF16D10408F4D4C149814F774A
:1019F0005A816B817D81EE818F81282F30E0A4E0B8
:101A000035952795AA95E1F7922F990F990F291BE4
:101A1000220F280F2B8B8E2F90E0B4E095958795A1
:101A2000BA95E1F7982F990F990F891B880F8E0FA0
:101A30008C8B272F30E014E0359527951A95E1F728
:101A4000822F880F880F281B220F270F2D8B862FA0
:101A500090E004E0959587950A95E1F7982F990F06
:101A6000990F891B880F860F8E8B252F30E084E01D
:101A7000359527958A95E1F7822F880F880F281BC7
:101A8000220F250F2F8B842F90E024E095958795CA
:101A90002A95E1F7982F990F990F891B880F840FCA
:101AA000888F81E080933C048FB7F8944091C702FF
:101AB0005091C8026091C9027091CA028FBF809193
:101AC0002C0490912D04A0912E04B0912F04481B5A
:101AD000590B6A0B7B0B8091380490913904B0E06C
:101AE000A0E084179507A607B70708F0DEC110E04D
:101AF00080913604181760F4E0913204F0913304B9
:101B0000E10FF11D62E080810E94BB021F5FF0CFF8
:101B1000912C80913704981608F063C0E92CF12CC1
:101B2000E0913404F0913504EE0DFF1D61E08081F9
:101B30000E94BB02E0913404F0913504EE0DFF1DCC
:101B400060E080810E94890281E090E0A0E0B0E046
:101B5000092C04C0880F991FAA1FBB1F0A94D2F733
:101B60005C016C01C094D094812C8091360488165D
:101B700008F5082D10E0E0913204F0913304E00FF5
:101B8000F11F80810E945D020C5F1F4F000F111F2B
:101B9000F801E053FC4F892B41F4808191818A291F
:101BA0009B29918380838394E0CF808191818C21D4
:101BB0009D21F7CFE0913404F0913504EE0DFF1D27
:101BC00061E080810E948902809134049091350403
:101BD000E80EF91E60E0D7018C910E94BB0293943D
:101BE00098CFE0EDCE2EE3E0DE2E8601F801878D62
:101BF00090A1892B31F4148E8FEF9FEF968F858FF4
:101C000011A20A5F1F4FACE0B4E0A017B10771F753
:101C1000B12C80913604B81608F053C0A12CEB2CDF
:101C2000F12CEE0CFF1CF701E852FC4F7F012091D4
:101C30003704A21608F043C0D7016D917C910A2C9D
:101C400002C0769567950A94E2F7B29E900111243E
:101C50002A0D311DE0EDF3E080E0458D568D24170F
:101C6000350709F4D8C28F5F36968A30B1F760FF26
:101C700024C0E0EDF3E090E080E0448D411118C015
:101C8000E0913004F0913104E20FF31F4081B6E09F
:101C9000B89FF001B99FF00D1124E053FC4F448F21
:101CA000368F258F10A2178E61E00E94B50005C007
:101CB000019636968A30910501F7A394B8CFB39474
:101CC000A8CF80E0F60191A19111892FF6E0CF0E07
:101CD000D11C0C151D05B1F79FB7F8944091C702B0
:101CE0005091C8026091C9027091CA029FBF40938F
:101CF0002C0450932D0460932E0470932F0488239A
:101D000009F4D3C05090F103552009F4CEC080915E
:101D1000EF039091F003019709F0C7C04090EC03E6
:101D20004110C6C080E090E0892B29F00E9491010B
:101D300081110E94000019828090BF029090C00221
:101D4000D40114968D919C911597892B09F44ECE50
:101D500011968D919C9112972C9131E03093F7025E
:101D6000209319031092F80210921A03DC01ED91EE
:101D7000FC910280F381E02D41E050E0B301099530
:101D8000019709F033CE80E00E94390481112ECEF4
:101D9000D12CC12CF4018481958137E0E32EF12C04
:101DA000EC18FD088E159F0508F47C01D4010C91F8
:101DB0000E94FB021B012C018091F1028111A2CD36
:101DC0001E2D113208F010E2B1E0B093F10221E0D3
:101DD00087E090E08E199F09C816D90608F420E024
:101DE0002093F002EFEFE093EF021092EE028FEFFC
:101DF000810F8093ED02F1E0F093CC028091CC0250
:101E0000000F082B0093CC028091CB02813009F0A7
:101E1000C0CD1092CB020E94FB021B012C018091CD
:101E2000CC028093BB008091F3029091F402A091C8
:101E3000F502B091F602892B8A2B8B2BA1F00E9420
:101E4000FB022091F3023091F4024091F50250918F
:101E5000F60262197309840995092617370748079E
:101E6000590708F470CD8091BC0083FDD8CF55ECA4
:101E70005093BC000E94FB021B012C018091F102D7
:101E8000813009F48ACD8091EE02811710F410910F
:101E9000EE02ADECB2E0E9E8F2E080E0811709F48F
:101EA00057CD9D9191938F5FF9CF10923C043ACF1B
:101EB000642D8BE193E00E94C70165E671E08BE140
:101EC00093E00E945E06B12CA12C65E0362E8FEFC8
:101ED000A81AB80A4AE0B301C5010E941911F3011A
:101EE00001900020E9F731978F0106191709B80111
:101EF0006F5F7F4F90E080E00E94BD147C010097EF
:101F000009F40EC1DC011C92B3010E9491154982B3
:101F10001A82F30101900020E9F731974F018618EA
:101F20009708B4016F5F7F4F90E080E00E94BD147E
:101F30006C01009709F471C1FC011082B3010E9489
:101F400091158016910609F0F3C0E114F10409F02F
:101F5000EAC0012B09F4F1C0D6018C9190E011E0A8
:101F6000892B09F010E0C114D10409F0E2C0E1149A
:101F7000F10409F05AC1112309F444C0F501EE0F30
:101F8000FF1FE250FF4F1081812F0E945D020197D9
:101F900009F4D7C0109201011092000110920301C0
:101FA0001092020110920501109204011092070193
:101FB00010920601109209011092080165ED71E07E
:101FC00084EC93E00E94FF0685ED91E00E94EC0610
:101FD00068EE73E080E090E00E942003109201011F
:101FE000109200011092030110920201109205015B
:101FF000109204011092070110920601109209013B
:102000001092080155E0A516B10409F060CF0E94B6
:102010003907843691050CF085CE30E0E32E31E0AF
:10202000F32E10E000E0F7018081F2E0EF0EF11CEA
:102030000E945D020F5F1F4F892BE1F50E94390757
:1020400084369105BCF580E00E94260666E172E0C8
:1020500084EC93E00E94FF06B80184EC93E00E94B8
:10206000E20661E0F701329780810E948902CE0189
:1020700043960E945203F801EE0FFF1FEE0FFF1F61
:10208000E955FD4F60837183828393831092010130
:1020900010920001109203011092020110920501AA
:1020A000109204011092070110920601109209018A
:1020B000109208010530110509F0B5CF809100019B
:1020C0000E945D02019709F02DCE809102010E94CD
:1020D0005D02019709F026CE809104010E945D0205
:1020E000019709F01FCE809106010E945D020197C1
:1020F00009F018CE809108010E945D02019709F055
:1021000011CE8DE292E00E94EC060E941B066DE269
:1021100072E084EC93E00E94FF060E941B0602CE50
:1021200010E000E0F4CEB701C6010E94881517CF79
:1021300010E0C6010E9434141ACF152DFACF152DC8
:1021400016CF60E0812F0E948902CE0143960E9443
:102150005203F501EE0FFF1FEE0FFF1FE955FD4F74
:102160000081118122813381601B710B820B930BE3
:10217000369E9001379E300D11243093AA02209391
:10218000A90280E00E9426066FEE71E084EC93E0E5
:102190000E94FF0681E00E9426066091A9027091CC
:1021A000AA0284EC93E00E94E2066FEE71E08BE1FC
:1021B00093E00E94FF064091A9025091AA02052EC9
:1021C000000C660B770B77FF20C08BE193E00E9439
:1021D000B90665E671E08BE193E00E945E0682E05D
:1021E0000E94260665E072E084EC93E00E94FF0600
:1021F00085E092E00E94EC0668EE73E080E090E0FB
:102200000E9420030E941B06FDCE2AE08BE193E092
:102210000E946D06DECF617048CD012B09F48FCF8F
:1022200010E0E114F10409F4EDCEC7010E9434146A
:10223000A2CEBB274A3031F4992322F4BDE2909517
:1022400081959F4F0C942511BB27FB015527AA2789
:10225000880F991FAA1FA41710F0A41B8395505133
:10226000B9F7A05DAA3308F0A95DA193009779F7AB
:10227000B111B1931192CB010C943E11DC01FC0120
:10228000672F71917723E1F7329704C07C916D93AA
:1022900070836291AE17BF07C8F308950E94901132
:1022A00008F481E00895E89409C097FB3EF4909506
:1022B0008095709561957F4F8F4F9F4F9923A9F01F
:1022C000F92F96E9BB279395F695879577956795AE
:1022D000B795F111F8CFFAF4BB0F11F460FF1BC0F2
:1022E0006F5F7F4F8F4F9F4F16C0882311F096E985
:1022F00011C0772321F09EE8872F762F05C0662333
:1023000071F096E8862F70E060E02AF09A95660FEB
:10231000771F881FDAF7880F9695879597F90895A4
:10232000990F0008550FAA0BE0E8FEEF16161706E6
:10233000E807F907C0F012161306E407F50798F04E
:10234000621B730B840B950B39F40A2661F0232B67
:10235000242B252B21F408950A2609F4A140A695E3
:102360008FEF811D811D08950E94C7110C943812B2
:102370000E942A1238F00E94311220F0952311F0A9
:102380000C9421120C94271211240C946C120E94AC
:10239000491270F3959FC1F3950F50E0551F629F4E
:1023A000F001729FBB27F00DB11D639FAA27F00DAE
:1023B000B11DAA1F649F6627B00DA11D661F829FD5
:1023C0002227B00DA11D621F739FB00DA11D621FBA
:1023D000839FA00D611D221F749F3327A00D611DD7
:1023E000231F849F600D211D822F762F6A2F1124B9
:1023F0009F5750409AF0F1F088234AF0EE0FFF1FEC
:10240000BB1F661F771F881F91505040A9F79E3F42
:10241000510580F00C9421120C946C125F3FE4F390
:10242000983ED4F3869577956795B795F795E79598
:102430009F5FC1F7FE2B880F911D9695879597F9A1
:10244000089597F99F6780E870E060E008959FEF36
:1024500080EC089500240A9416161706180609063B
:10246000089500240A94121613061406050608950A
:10247000092E0394000C11F4882352F0BB0F40F492
:10248000BF2B11F460FF04C06F5F7F4F8F4F9F4FD2
:10249000089557FD9058440F551F59F05F3F71F054
:1024A0004795880F97FB991F61F09F3F79F08795BB
:1024B0000895121613061406551FF2CF4695F1DF44
:1024C00008C0161617061806991FF1CF86957105D4
:1024D000610508940895E894BB2766277727CB0108
:1024E00097F908950E94B412A59F900DB49F900D86
:1024F000A49F800D911D112408952F923F924F9219
:102500005F926F927F928F929F92AF92BF92CF9283
:10251000DF92EF92FF920F931F93CF93DF93CDB78C
:10252000DEB7CA1BDB0B0FB6F894DEBF0FBECDBF04
:1025300009942A88398848885F846E847D848C84D5
:102540009B84AA84B984C884DF80EE80FD800C81DE
:102550001B81AA81B981CE0FD11D0FB6F894DEBFC1
:102560000FBECDBFED010895A29FB001B39FC00182
:10257000A39F700D811D1124911DB29F700D811DAF
:102580001124911D08955058BB27AA270E94DB12E1
:102590000C9438120E942A1238F00E94311220F056
:1025A00039F49F3F19F426F40C9427120EF4E095A9
:1025B000E7FB0C942112E92F0E94491258F3BA1735
:1025C000620773078407950720F079F4A6F50C9449
:1025D0006B120EF4E0950B2EBA2FA02D0B01B90152
:1025E00090010C01CA01A0011124FF27591B99F089
:1025F000593F50F4503E68F11A16F040A22F232F95
:10260000342F4427585FF3CF469537952795A795E4
:10261000F0405395C9F77EF41F16BA0B620B730B8B
:10262000840BBAF09150A1F0FF0FBB1F661F771FFC
:10263000881FC2F70EC0BA0F621F731F841F48F4B1
:10264000879577956795B795F7959E3F08F0B0CF3A
:102650009395880F08F09927EE0F97958795089521
:102660000E9437136894B1110C946C1208950E9463
:10267000511288F09F5798F0B92F9927B751B0F0B1
:10268000E1F0660F771F881F991F1AF0BA95C9F7F6
:1026900014C0B13091F00E946B12B1E008950C9417
:1026A0006B12672F782F8827B85F39F0B93FCCF3CA
:1026B000869577956795B395D9F73EF49095809573
:1026C000709561957F4F8F4F9F4F08950E94901195
:1026D00008F48FEF08950E949011880B990B0895CC
:1026E000A1E21A2EAA1BBB1BFD010DC0AA1FBB1F16
:1026F000EE1FFF1FA217B307E407F50720F0A21B88
:10270000B30BE40BF50B661F771F881F991F1A94F4
:1027100069F760957095809590959B01AC01BD011E
:10272000CF010895EE0FFF1F0590F491E02D09945D
:102730000F931F93CF93DF938230910510F482E0C3
:1027400090E0E0914104F091420430E020E0B0E0FC
:10275000A0E0309799F42115310509F44AC0281BEF
:10276000390B24303105D8F58A819B8161157105BB
:1027700089F1FB0193838283FE0111C04081518165
:102780000281138148175907E0F04817590799F457
:10279000109761F012960C93129713961C93329631
:1027A000CF01DF91CF911F910F91089500934104C4
:1027B00010934204F4CF2115310551F0421753070D
:1027C00038F0A901DB019A01BD01DF01F801C1CF99
:1027D000EF01F9CF9093420480934104CDCFFE01E5
:1027E000E20FF31F8193919322503109398328839B
:1027F000D7CF20913F0430914004232B41F4209106
:102800001F01309120013093400420933F04209118
:102810001D0130911E012115310541F42DB73EB740
:102820004091210150912201241B350BE0913F047E
:10283000F0914004E217F307A0F42E1B3F0B28177A
:10284000390778F0AC014E5F5F4F2417350748F029
:102850004E0F5F1F5093400440933F048193919328
:102860009FCFF0E0E0E09CCFCF93DF930097E9F0BB
:10287000FC01329713821282A0914104B09142046C
:10288000ED0130E020E01097A1F420813181820F2A
:10289000931F20913F04309140042817390709F015
:1028A00061C0F0934004E0933F04DF91CF9108951D
:1028B000EA01CE17DF07E8F54A815B819E014115E9
:1028C0005105B1F7E901FB83EA8349915991C40F9E
:1028D000D51FEC17FD0761F4808191810296840F6A
:1028E000951FE90199838883828193819B838A83E1
:1028F000F0E0E0E012968D919C9113970097B9F566
:102900002D913C911197CD010296820F931F20913A
:102910003F04309140042817390739F6309751F5B4
:102920001092420410924104B0934004A0933F04DB
:10293000BCCFD383C28340815181840F951FC817B8
:10294000D90761F44E5F5F4F88819981480F591F05
:10295000518340838A819B81938382832115310532
:1029600009F0B0CFF0934204E09341049ECFFD0103
:10297000DC01C0CF13821282D7CFB0E0A0E0E3EC3D
:10298000F4E10C947F128C01009751F4CB010E946A
:1029900098138C01C801CDB7DEB7E0E10C949B120F
:1029A000FC01E60FF71F9C0122503109E217F307E3
:1029B00008F49DC0D901CD91DC911197C617D707B6
:1029C00098F0C530D10530F3CE01049786179707EC
:1029D00008F3C61BD70B2297C193D1936D937C93B9
:1029E000CF010E943414D6CF5B01AC1ABD0A4C0152
:1029F0008C0E9D1EA0914104B0914204512C412C9B
:102A0000F12CE12C109731F580913F049091400416
:102A10008815990509F05CC04616570608F058C09D
:102A200080911D0190911E01009741F48DB79EB7D2
:102A30004091210150912201841B950BE817F90761
:102A400008F055C0F0934004E0933F04F90171830E
:102A50006083A0CF8D919C91119712966C901297E4
:102A600013967C901397A815B90559F56C0142E0AF
:102A7000C40ED11CCA14DB0420F1AC014A195B0955
:102A8000DA011296159780F0628273825183408337
:102A9000D9016D937C93E114F10471F0D701139681
:102AA000FC93EE93129776CF22968C0F9D1FF9011F
:102AB00091838083F301EFCFF0934204E0934104CC
:102AC00069CF4816590608F42C017D01D3019ACF2D
:102AD000CB010E9498137C01009749F0AE01B80128
:102AE0000E947F15C8010E943414870153CF10E063
:102AF00000E050CF81E090E0F8940C949815FB0131
:102B0000DC0102C001900D9241505040D8F7089569
:102B1000FB01DC018D91019080190110D9F3990B13
:102B20000895FB01DC0101900D920020E1F708956A
:102B3000F894FFCF02000300040005000600090A14
:102B40000B0E0F10113132333435363738392A3005
:102B500023000043048000000040001400540000E3
:102B6000000000C7012701540114028501630177A9
:102B70000100000000A5057805E8054E0571055E19
:102B8000054F050000000058062701E805BB0300BB
:102B9000000000F702B70286020D0A004469737450
:102BA000616E63653A20006E616E00696E66006F4B
:102BB00076660020636D004D616465206279205067
:102BC00061726B4B61726F004D61646520627900C8
:102BD000494E534944494F5553005365747570200D
:102BE000636F6D706C657465003620536C6F747321
:102BF00020456D70747900436F756C646E27742086
:102C000066696E64205254430054686520536C6FAB
:102C10007420697320416C726561647920456D7020
:102C2000747900596F75722042696C6C20416D6F28
:102C3000756E742069733A20005468616E6B73205E
:102C4000666F72205669736974005061726B2079E7
:102C50006F75722063617220617420736C6F7420D1
:102C6000004E6F204D6F726520536C6F74730000BF
:107E0000112484B714BE81FFF0D085E080938100F7
:107E100082E08093C00088E18093C10086E0809377
:107E2000C20080E18093C4008EE0C9D0259A86E02C
:107E300020E33CEF91E0309385002093840096BBD3
:107E4000B09BFECF1D9AA8958150A9F7CC24DD24C4
:107E500088248394B5E0AB2EA1E19A2EF3E0BF2EE7
:107E6000A2D0813461F49FD0082FAFD0023811F036
:107E7000013811F484E001C083E08DD089C08234E0
:107E800011F484E103C0853419F485E0A6D080C0E4
:107E9000853579F488D0E82EFF2485D0082F10E0AE
:107EA000102F00270E291F29000F111F8ED06801E7
:107EB0006FC0863521F484E090D080E0DECF843638
:107EC00009F040C070D06FD0082F6DD080E0C81688
:107ED00080E7D80618F4F601B7BEE895C0E0D1E017
:107EE00062D089930C17E1F7F0E0CF16F0E7DF06D8
:107EF00018F0F601B7BEE89568D007B600FCFDCFD4
:107F0000A601A0E0B1E02C9130E011968C91119780
:107F100090E0982F8827822B932B1296FA010C0160
:107F200087BEE89511244E5F5F4FF1E0A038BF0790
:107F300051F7F601A7BEE89507B600FCFDCF97BE46
:107F4000E89526C08437B1F42ED02DD0F82E2BD052
:107F50003CD0F601EF2C8F010F5F1F4F84911BD097
:107F6000EA94F801C1F70894C11CD11CFA94CF0C13
:107F7000D11C0EC0853739F428D08EE10CD085E9AC
:107F80000AD08FE07ACF813511F488E018D01DD067
:107F900080E101D065CF982F8091C00085FFFCCF94
:107FA0009093C60008958091C00087FFFCCF809118
:107FB000C00084FD01C0A8958091C6000895E0E648
:107FC000F0E098E1908380830895EDDF803219F02E
:107FD00088E0F5DFFFCF84E1DECF1F93182FE3DFCA
:107FE0001150E9F7F2DF1F91089580E0E8DFEE27F6
:047FF000FF270994CA
:027FFE00040479
:00000001FF
